{
	"data": {
		"bytecode": {
			"linkReferences": {},
			"object": "608060405234801561000f575f80fd5b506104e58061001d5f395ff3fe608060405234801561000f575f80fd5b506004361061003f575f3560e01c806328c4841d14610043578063cb5debd114610061578063eada0edb1461007d575b5f80fd5b61004b61009b565b6040516100589190610220565b60405180910390f35b61007b600480360381019061007691906102ab565b610131565b005b610085610173565b6040516100929190610331565b60405180910390f35b60605f8054906101000a900473ffffffffffffffffffffffffffffffffffffffff1673ffffffffffffffffffffffffffffffffffffffff1663ab117c3e6040518163ffffffff1660e01b81526004015f60405180830381865afa158015610104573d5f803e3d5ffd5b505050506040513d5f823e3d601f19601f8201168201806040525081019061012c9190610468565b905090565b805f806101000a81548173ffffffffffffffffffffffffffffffffffffffff021916908373ffffffffffffffffffffffffffffffffffffffff16021790555050565b5f8054906101000a900473ffffffffffffffffffffffffffffffffffffffff1681565b5f81519050919050565b5f82825260208201905092915050565b5f5b838110156101cd5780820151818401526020810190506101b2565b5f8484015250505050565b5f601f19601f8301169050919050565b5f6101f282610196565b6101fc81856101a0565b935061020c8185602086016101b0565b610215816101d8565b840191505092915050565b5f6020820190508181035f83015261023881846101e8565b905092915050565b5f604051905090565b5f80fd5b5f80fd5b5f73ffffffffffffffffffffffffffffffffffffffff82169050919050565b5f61027a82610251565b9050919050565b61028a81610270565b8114610294575f80fd5b50565b5f813590506102a581610281565b92915050565b5f602082840312156102c0576102bf610249565b5b5f6102cd84828501610297565b91505092915050565b5f819050919050565b5f6102f96102f46102ef84610251565b6102d6565b610251565b9050919050565b5f61030a826102df565b9050919050565b5f61031b82610300565b9050919050565b61032b81610311565b82525050565b5f6020820190506103445f830184610322565b92915050565b5f80fd5b5f80fd5b7f4e487b71000000000000000000000000000000000000000000000000000000005f52604160045260245ffd5b610388826101d8565b810181811067ffffffffffffffff821117156103a7576103a6610352565b5b80604052505050565b5f6103b9610240565b90506103c5828261037f565b919050565b5f67ffffffffffffffff8211156103e4576103e3610352565b5b6103ed826101d8565b9050602081019050919050565b5f61040c610407846103ca565b6103b0565b9050828152602081018484840111156104285761042761034e565b5b6104338482856101b0565b509392505050565b5f82601f83011261044f5761044e61034a565b5b815161045f8482602086016103fa565b91505092915050565b5f6020828403121561047d5761047c610249565b5b5f82015167ffffffffffffffff81111561049a5761049961024d565b5b6104a68482850161043b565b9150509291505056fea264697066735822122067107eaa1bb52d867d1527b522a055c03d2c22c70340114244ffe02808034abd64736f6c63430008160033",
			"opcodes": "PUSH1 0x80 PUSH1 0x40 MSTORE CALLVALUE DUP1 ISZERO PUSH2 0xF JUMPI PUSH0 DUP1 REVERT JUMPDEST POP PUSH2 0x4E5 DUP1 PUSH2 0x1D PUSH0 CODECOPY PUSH0 RETURN INVALID PUSH1 0x80 PUSH1 0x40 MSTORE CALLVALUE DUP1 ISZERO PUSH2 0xF JUMPI PUSH0 DUP1 REVERT JUMPDEST POP PUSH1 0x4 CALLDATASIZE LT PUSH2 0x3F JUMPI PUSH0 CALLDATALOAD PUSH1 0xE0 SHR DUP1 PUSH4 0x28C4841D EQ PUSH2 0x43 JUMPI DUP1 PUSH4 0xCB5DEBD1 EQ PUSH2 0x61 JUMPI DUP1 PUSH4 0xEADA0EDB EQ PUSH2 0x7D JUMPI JUMPDEST PUSH0 DUP1 REVERT JUMPDEST PUSH2 0x4B PUSH2 0x9B JUMP JUMPDEST PUSH1 0x40 MLOAD PUSH2 0x58 SWAP2 SWAP1 PUSH2 0x220 JUMP JUMPDEST PUSH1 0x40 MLOAD DUP1 SWAP2 SUB SWAP1 RETURN JUMPDEST PUSH2 0x7B PUSH1 0x4 DUP1 CALLDATASIZE SUB DUP2 ADD SWAP1 PUSH2 0x76 SWAP2 SWAP1 PUSH2 0x2AB JUMP JUMPDEST PUSH2 0x131 JUMP JUMPDEST STOP JUMPDEST PUSH2 0x85 PUSH2 0x173 JUMP JUMPDEST PUSH1 0x40 MLOAD PUSH2 0x92 SWAP2 SWAP1 PUSH2 0x331 JUMP JUMPDEST PUSH1 0x40 MLOAD DUP1 SWAP2 SUB SWAP1 RETURN JUMPDEST PUSH1 0x60 PUSH0 DUP1 SLOAD SWAP1 PUSH2 0x100 EXP SWAP1 DIV PUSH20 0xFFFFFFFFFFFFFFFFFFFFFFFFFFFFFFFFFFFFFFFF AND PUSH20 0xFFFFFFFFFFFFFFFFFFFFFFFFFFFFFFFFFFFFFFFF AND PUSH4 0xAB117C3E PUSH1 0x40 MLOAD DUP2 PUSH4 0xFFFFFFFF AND PUSH1 0xE0 SHL DUP2 MSTORE PUSH1 0x4 ADD PUSH0 PUSH1 0x40 MLOAD DUP1 DUP4 SUB DUP2 DUP7 GAS STATICCALL ISZERO DUP1 ISZERO PUSH2 0x104 JUMPI RETURNDATASIZE PUSH0 DUP1 RETURNDATACOPY RETURNDATASIZE PUSH0 REVERT JUMPDEST POP POP POP POP PUSH1 0x40 MLOAD RETURNDATASIZE PUSH0 DUP3 RETURNDATACOPY RETURNDATASIZE PUSH1 0x1F NOT PUSH1 0x1F DUP3 ADD AND DUP3 ADD DUP1 PUSH1 0x40 MSTORE POP DUP2 ADD SWAP1 PUSH2 0x12C SWAP2 SWAP1 PUSH2 0x468 JUMP JUMPDEST SWAP1 POP SWAP1 JUMP JUMPDEST DUP1 PUSH0 DUP1 PUSH2 0x100 EXP DUP2 SLOAD DUP2 PUSH20 0xFFFFFFFFFFFFFFFFFFFFFFFFFFFFFFFFFFFFFFFF MUL NOT AND SWAP1 DUP4 PUSH20 0xFFFFFFFFFFFFFFFFFFFFFFFFFFFFFFFFFFFFFFFF AND MUL OR SWAP1 SSTORE POP POP JUMP JUMPDEST PUSH0 DUP1 SLOAD SWAP1 PUSH2 0x100 EXP SWAP1 DIV PUSH20 0xFFFFFFFFFFFFFFFFFFFFFFFFFFFFFFFFFFFFFFFF AND DUP2 JUMP JUMPDEST PUSH0 DUP2 MLOAD SWAP1 POP SWAP2 SWAP1 POP JUMP JUMPDEST PUSH0 DUP3 DUP3 MSTORE PUSH1 0x20 DUP3 ADD SWAP1 POP SWAP3 SWAP2 POP POP JUMP JUMPDEST PUSH0 JUMPDEST DUP4 DUP2 LT ISZERO PUSH2 0x1CD JUMPI DUP1 DUP3 ADD MLOAD DUP2 DUP5 ADD MSTORE PUSH1 0x20 DUP2 ADD SWAP1 POP PUSH2 0x1B2 JUMP JUMPDEST PUSH0 DUP5 DUP5 ADD MSTORE POP POP POP POP JUMP JUMPDEST PUSH0 PUSH1 0x1F NOT PUSH1 0x1F DUP4 ADD AND SWAP1 POP SWAP2 SWAP1 POP JUMP JUMPDEST PUSH0 PUSH2 0x1F2 DUP3 PUSH2 0x196 JUMP JUMPDEST PUSH2 0x1FC DUP2 DUP6 PUSH2 0x1A0 JUMP JUMPDEST SWAP4 POP PUSH2 0x20C DUP2 DUP6 PUSH1 0x20 DUP7 ADD PUSH2 0x1B0 JUMP JUMPDEST PUSH2 0x215 DUP2 PUSH2 0x1D8 JUMP JUMPDEST DUP5 ADD SWAP2 POP POP SWAP3 SWAP2 POP POP JUMP JUMPDEST PUSH0 PUSH1 0x20 DUP3 ADD SWAP1 POP DUP2 DUP2 SUB PUSH0 DUP4 ADD MSTORE PUSH2 0x238 DUP2 DUP5 PUSH2 0x1E8 JUMP JUMPDEST SWAP1 POP SWAP3 SWAP2 POP POP JUMP JUMPDEST PUSH0 PUSH1 0x40 MLOAD SWAP1 POP SWAP1 JUMP JUMPDEST PUSH0 DUP1 REVERT JUMPDEST PUSH0 DUP1 REVERT JUMPDEST PUSH0 PUSH20 0xFFFFFFFFFFFFFFFFFFFFFFFFFFFFFFFFFFFFFFFF DUP3 AND SWAP1 POP SWAP2 SWAP1 POP JUMP JUMPDEST PUSH0 PUSH2 0x27A DUP3 PUSH2 0x251 JUMP JUMPDEST SWAP1 POP SWAP2 SWAP1 POP JUMP JUMPDEST PUSH2 0x28A DUP2 PUSH2 0x270 JUMP JUMPDEST DUP2 EQ PUSH2 0x294 JUMPI PUSH0 DUP1 REVERT JUMPDEST POP JUMP JUMPDEST PUSH0 DUP2 CALLDATALOAD SWAP1 POP PUSH2 0x2A5 DUP2 PUSH2 0x281 JUMP JUMPDEST SWAP3 SWAP2 POP POP JUMP JUMPDEST PUSH0 PUSH1 0x20 DUP3 DUP5 SUB SLT ISZERO PUSH2 0x2C0 JUMPI PUSH2 0x2BF PUSH2 0x249 JUMP JUMPDEST JUMPDEST PUSH0 PUSH2 0x2CD DUP5 DUP3 DUP6 ADD PUSH2 0x297 JUMP JUMPDEST SWAP2 POP POP SWAP3 SWAP2 POP POP JUMP JUMPDEST PUSH0 DUP2 SWAP1 POP SWAP2 SWAP1 POP JUMP JUMPDEST PUSH0 PUSH2 0x2F9 PUSH2 0x2F4 PUSH2 0x2EF DUP5 PUSH2 0x251 JUMP JUMPDEST PUSH2 0x2D6 JUMP JUMPDEST PUSH2 0x251 JUMP JUMPDEST SWAP1 POP SWAP2 SWAP1 POP JUMP JUMPDEST PUSH0 PUSH2 0x30A DUP3 PUSH2 0x2DF JUMP JUMPDEST SWAP1 POP SWAP2 SWAP1 POP JUMP JUMPDEST PUSH0 PUSH2 0x31B DUP3 PUSH2 0x300 JUMP JUMPDEST SWAP1 POP SWAP2 SWAP1 POP JUMP JUMPDEST PUSH2 0x32B DUP2 PUSH2 0x311 JUMP JUMPDEST DUP3 MSTORE POP POP JUMP JUMPDEST PUSH0 PUSH1 0x20 DUP3 ADD SWAP1 POP PUSH2 0x344 PUSH0 DUP4 ADD DUP5 PUSH2 0x322 JUMP JUMPDEST SWAP3 SWAP2 POP POP JUMP JUMPDEST PUSH0 DUP1 REVERT JUMPDEST PUSH0 DUP1 REVERT JUMPDEST PUSH32 0x4E487B7100000000000000000000000000000000000000000000000000000000 PUSH0 MSTORE PUSH1 0x41 PUSH1 0x4 MSTORE PUSH1 0x24 PUSH0 REVERT JUMPDEST PUSH2 0x388 DUP3 PUSH2 0x1D8 JUMP JUMPDEST DUP2 ADD DUP2 DUP2 LT PUSH8 0xFFFFFFFFFFFFFFFF DUP3 GT OR ISZERO PUSH2 0x3A7 JUMPI PUSH2 0x3A6 PUSH2 0x352 JUMP JUMPDEST JUMPDEST DUP1 PUSH1 0x40 MSTORE POP POP POP JUMP JUMPDEST PUSH0 PUSH2 0x3B9 PUSH2 0x240 JUMP JUMPDEST SWAP1 POP PUSH2 0x3C5 DUP3 DUP3 PUSH2 0x37F JUMP JUMPDEST SWAP2 SWAP1 POP JUMP JUMPDEST PUSH0 PUSH8 0xFFFFFFFFFFFFFFFF DUP3 GT ISZERO PUSH2 0x3E4 JUMPI PUSH2 0x3E3 PUSH2 0x352 JUMP JUMPDEST JUMPDEST PUSH2 0x3ED DUP3 PUSH2 0x1D8 JUMP JUMPDEST SWAP1 POP PUSH1 0x20 DUP2 ADD SWAP1 POP SWAP2 SWAP1 POP JUMP JUMPDEST PUSH0 PUSH2 0x40C PUSH2 0x407 DUP5 PUSH2 0x3CA JUMP JUMPDEST PUSH2 0x3B0 JUMP JUMPDEST SWAP1 POP DUP3 DUP2 MSTORE PUSH1 0x20 DUP2 ADD DUP5 DUP5 DUP5 ADD GT ISZERO PUSH2 0x428 JUMPI PUSH2 0x427 PUSH2 0x34E JUMP JUMPDEST JUMPDEST PUSH2 0x433 DUP5 DUP3 DUP6 PUSH2 0x1B0 JUMP JUMPDEST POP SWAP4 SWAP3 POP POP POP JUMP JUMPDEST PUSH0 DUP3 PUSH1 0x1F DUP4 ADD SLT PUSH2 0x44F JUMPI PUSH2 0x44E PUSH2 0x34A JUMP JUMPDEST JUMPDEST DUP2 MLOAD PUSH2 0x45F DUP5 DUP3 PUSH1 0x20 DUP7 ADD PUSH2 0x3FA JUMP JUMPDEST SWAP2 POP POP SWAP3 SWAP2 POP POP JUMP JUMPDEST PUSH0 PUSH1 0x20 DUP3 DUP5 SUB SLT ISZERO PUSH2 0x47D JUMPI PUSH2 0x47C PUSH2 0x249 JUMP JUMPDEST JUMPDEST PUSH0 DUP3 ADD MLOAD PUSH8 0xFFFFFFFFFFFFFFFF DUP2 GT ISZERO PUSH2 0x49A JUMPI PUSH2 0x499 PUSH2 0x24D JUMP JUMPDEST JUMPDEST PUSH2 0x4A6 DUP5 DUP3 DUP6 ADD PUSH2 0x43B JUMP JUMPDEST SWAP2 POP POP SWAP3 SWAP2 POP POP JUMP INVALID LOG2 PUSH5 0x6970667358 0x22 SLT KECCAK256 PUSH8 0x107EAA1BB52D867D ISZERO 0x27 0xB5 0x22 LOG0 SSTORE 0xC0 RETURNDATASIZE 0x2C 0x22 0xC7 SUB BLOCKHASH GT TIMESTAMP PREVRANDAO SELFDESTRUCT 0xE0 0x28 ADDMOD SUB 0x4A 0xBD PUSH5 0x736F6C6343 STOP ADDMOD AND STOP CALLER "
		},
		"gasEstimates": {
			"creation": {
				"codeDepositCost": "250600",
				"executionCost": "292",
				"totalCost": "250892"
			},
			"external": {
				"animal()": "infinite",
				"makeAnimalSound()": "infinite",
				"setAnimal(address)": "24715"
			}
		},
		"methodIdentifiers": {
			"animal()": "eada0edb",
			"makeAnimalSound()": "28c4841d",
			"setAnimal(address)": "cb5debd1"
		}
	},
	"abi": [
		{
			"inputs": [],
			"name": "animal",
			"outputs": [
				{
					"internalType": "contract Animal",
					"name": "",
					"type": "address"
				}
			],
			"stateMutability": "view",
			"type": "function"
		},
		{
			"inputs": [],
			"name": "makeAnimalSound",
			"outputs": [
				{
					"internalType": "string",
					"name": "",
					"type": "string"
				}
			],
			"stateMutability": "view",
			"type": "function"
		},
		{
			"inputs": [
				{
					"internalType": "address",
					"name": "_animalAddress",
					"type": "address"
				}
			],
			"name": "setAnimal",
			"outputs": [],
			"stateMutability": "nonpayable",
			"type": "function"
		}
	]
}