{
	"data": {
		"bytecode": {
			"linkReferences": {},
			"object": "6080604052348015600e575f80fd5b50607e8061001b5f395ff3fe6080604052348015600e575f80fd5b50600436106030575f3560e01c8063340a2a4e146034578063ab117c3e14603c575b5f80fd5b603a6044565b005b60426046565b005b565b56fea2646970667358221220adb7e8969bca18f163cbf8f2f3a92114ca77de59a7f67ee5893f42a24f6e1ed964736f6c63430008160033",
			"opcodes": "PUSH1 0x80 PUSH1 0x40 MSTORE CALLVALUE DUP1 ISZERO PUSH1 0xE JUMPI PUSH0 DUP1 REVERT JUMPDEST POP PUSH1 0x7E DUP1 PUSH2 0x1B PUSH0 CODECOPY PUSH0 RETURN INVALID PUSH1 0x80 PUSH1 0x40 MSTORE CALLVALUE DUP1 ISZERO PUSH1 0xE JUMPI PUSH0 DUP1 REVERT JUMPDEST POP PUSH1 0x4 CALLDATASIZE LT PUSH1 0x30 JUMPI PUSH0 CALLDATALOAD PUSH1 0xE0 SHR DUP1 PUSH4 0x340A2A4E EQ PUSH1 0x34 JUMPI DUP1 PUSH4 0xAB117C3E EQ PUSH1 0x3C JUMPI JUMPDEST PUSH0 DUP1 REVERT JUMPDEST PUSH1 0x3A PUSH1 0x44 JUMP JUMPDEST STOP JUMPDEST PUSH1 0x42 PUSH1 0x46 JUMP JUMPDEST STOP JUMPDEST JUMP JUMPDEST JUMP INVALID LOG2 PUSH5 0x6970667358 0x22 SLT KECCAK256 0xAD 0xB7 0xE8 SWAP7 SWAP12 0xCA XOR CALL PUSH4 0xCBF8F2F3 0xA9 0x21 EQ 0xCA PUSH24 0xDE59A7F67EE5893F42A24F6E1ED964736F6C634300081600 CALLER "
		},
		"gasEstimates": {
			"creation": {
				"codeDepositCost": "25200",
				"executionCost": "73",
				"totalCost": "25273"
			},
			"external": {
				"eat()": "121",
				"makeSound()": "143"
			}
		},
		"methodIdentifiers": {
			"eat()": "340a2a4e",
			"makeSound()": "ab117c3e"
		}
	},
	"abi": [
		{
			"inputs": [],
			"name": "eat",
			"outputs": [],
			"stateMutability": "nonpayable",
			"type": "function"
		},
		{
			"inputs": [],
			"name": "makeSound",
			"outputs": [],
			"stateMutability": "nonpayable",
			"type": "function"
		}
	]
}